{
  "contractName": "Token",
  "abi": [
    {
      "inputs": [],
      "stateMutability": "nonpayable",
      "type": "constructor"
    },
    {
      "inputs": [],
      "name": "ECDSAInvalidSignature",
      "type": "error"
    },
    {
      "inputs": [
        {
          "internalType": "uint256",
          "name": "length",
          "type": "uint256"
        }
      ],
      "name": "ECDSAInvalidSignatureLength",
      "type": "error"
    },
    {
      "inputs": [
        {
          "internalType": "bytes32",
          "name": "s",
          "type": "bytes32"
        }
      ],
      "name": "ECDSAInvalidSignatureS",
      "type": "error"
    },
    {
      "inputs": [
        {
          "internalType": "address",
          "name": "spender",
          "type": "address"
        },
        {
          "internalType": "uint256",
          "name": "allowance",
          "type": "uint256"
        },
        {
          "internalType": "uint256",
          "name": "needed",
          "type": "uint256"
        }
      ],
      "name": "ERC20InsufficientAllowance",
      "type": "error"
    },
    {
      "inputs": [
        {
          "internalType": "address",
          "name": "sender",
          "type": "address"
        },
        {
          "internalType": "uint256",
          "name": "balance",
          "type": "uint256"
        },
        {
          "internalType": "uint256",
          "name": "needed",
          "type": "uint256"
        }
      ],
      "name": "ERC20InsufficientBalance",
      "type": "error"
    },
    {
      "inputs": [
        {
          "internalType": "address",
          "name": "approver",
          "type": "address"
        }
      ],
      "name": "ERC20InvalidApprover",
      "type": "error"
    },
    {
      "inputs": [
        {
          "internalType": "address",
          "name": "receiver",
          "type": "address"
        }
      ],
      "name": "ERC20InvalidReceiver",
      "type": "error"
    },
    {
      "inputs": [
        {
          "internalType": "address",
          "name": "sender",
          "type": "address"
        }
      ],
      "name": "ERC20InvalidSender",
      "type": "error"
    },
    {
      "inputs": [
        {
          "internalType": "address",
          "name": "spender",
          "type": "address"
        }
      ],
      "name": "ERC20InvalidSpender",
      "type": "error"
    },
    {
      "inputs": [
        {
          "internalType": "uint256",
          "name": "deadline",
          "type": "uint256"
        }
      ],
      "name": "ERC2612ExpiredSignature",
      "type": "error"
    },
    {
      "inputs": [
        {
          "internalType": "address",
          "name": "signer",
          "type": "address"
        },
        {
          "internalType": "address",
          "name": "owner",
          "type": "address"
        }
      ],
      "name": "ERC2612InvalidSigner",
      "type": "error"
    },
    {
      "inputs": [
        {
          "internalType": "address",
          "name": "account",
          "type": "address"
        },
        {
          "internalType": "uint256",
          "name": "currentNonce",
          "type": "uint256"
        }
      ],
      "name": "InvalidAccountNonce",
      "type": "error"
    },
    {
      "inputs": [],
      "name": "InvalidShortString",
      "type": "error"
    },
    {
      "inputs": [
        {
          "internalType": "string",
          "name": "str",
          "type": "string"
        }
      ],
      "name": "StringTooLong",
      "type": "error"
    },
    {
      "anonymous": false,
      "inputs": [
        {
          "indexed": true,
          "internalType": "address",
          "name": "owner",
          "type": "address"
        },
        {
          "indexed": true,
          "internalType": "address",
          "name": "spender",
          "type": "address"
        },
        {
          "indexed": false,
          "internalType": "uint256",
          "name": "value",
          "type": "uint256"
        }
      ],
      "name": "Approval",
      "type": "event"
    },
    {
      "anonymous": false,
      "inputs": [],
      "name": "EIP712DomainChanged",
      "type": "event"
    },
    {
      "anonymous": false,
      "inputs": [
        {
          "indexed": true,
          "internalType": "address",
          "name": "from",
          "type": "address"
        },
        {
          "indexed": true,
          "internalType": "address",
          "name": "to",
          "type": "address"
        },
        {
          "indexed": false,
          "internalType": "uint256",
          "name": "value",
          "type": "uint256"
        }
      ],
      "name": "Transfer",
      "type": "event"
    },
    {
      "inputs": [],
      "name": "DOMAIN_SEPARATOR",
      "outputs": [
        {
          "internalType": "bytes32",
          "name": "",
          "type": "bytes32"
        }
      ],
      "stateMutability": "view",
      "type": "function",
      "constant": true
    },
    {
      "inputs": [
        {
          "internalType": "address",
          "name": "owner",
          "type": "address"
        },
        {
          "internalType": "address",
          "name": "spender",
          "type": "address"
        }
      ],
      "name": "allowance",
      "outputs": [
        {
          "internalType": "uint256",
          "name": "",
          "type": "uint256"
        }
      ],
      "stateMutability": "view",
      "type": "function",
      "constant": true
    },
    {
      "inputs": [
        {
          "internalType": "address",
          "name": "spender",
          "type": "address"
        },
        {
          "internalType": "uint256",
          "name": "value",
          "type": "uint256"
        }
      ],
      "name": "approve",
      "outputs": [
        {
          "internalType": "bool",
          "name": "",
          "type": "bool"
        }
      ],
      "stateMutability": "nonpayable",
      "type": "function"
    },
    {
      "inputs": [
        {
          "internalType": "address",
          "name": "account",
          "type": "address"
        }
      ],
      "name": "balanceOf",
      "outputs": [
        {
          "internalType": "uint256",
          "name": "",
          "type": "uint256"
        }
      ],
      "stateMutability": "view",
      "type": "function",
      "constant": true
    },
    {
      "inputs": [],
      "name": "decimals",
      "outputs": [
        {
          "internalType": "uint8",
          "name": "",
          "type": "uint8"
        }
      ],
      "stateMutability": "view",
      "type": "function",
      "constant": true
    },
    {
      "inputs": [],
      "name": "eip712Domain",
      "outputs": [
        {
          "internalType": "bytes1",
          "name": "fields",
          "type": "bytes1"
        },
        {
          "internalType": "string",
          "name": "name",
          "type": "string"
        },
        {
          "internalType": "string",
          "name": "version",
          "type": "string"
        },
        {
          "internalType": "uint256",
          "name": "chainId",
          "type": "uint256"
        },
        {
          "internalType": "address",
          "name": "verifyingContract",
          "type": "address"
        },
        {
          "internalType": "bytes32",
          "name": "salt",
          "type": "bytes32"
        },
        {
          "internalType": "uint256[]",
          "name": "extensions",
          "type": "uint256[]"
        }
      ],
      "stateMutability": "view",
      "type": "function",
      "constant": true
    },
    {
      "inputs": [],
      "name": "name",
      "outputs": [
        {
          "internalType": "string",
          "name": "",
          "type": "string"
        }
      ],
      "stateMutability": "view",
      "type": "function",
      "constant": true
    },
    {
      "inputs": [
        {
          "internalType": "address",
          "name": "owner",
          "type": "address"
        }
      ],
      "name": "nonces",
      "outputs": [
        {
          "internalType": "uint256",
          "name": "",
          "type": "uint256"
        }
      ],
      "stateMutability": "view",
      "type": "function",
      "constant": true
    },
    {
      "inputs": [
        {
          "internalType": "address",
          "name": "owner",
          "type": "address"
        },
        {
          "internalType": "address",
          "name": "spender",
          "type": "address"
        },
        {
          "internalType": "uint256",
          "name": "value",
          "type": "uint256"
        },
        {
          "internalType": "uint256",
          "name": "deadline",
          "type": "uint256"
        },
        {
          "internalType": "uint8",
          "name": "v",
          "type": "uint8"
        },
        {
          "internalType": "bytes32",
          "name": "r",
          "type": "bytes32"
        },
        {
          "internalType": "bytes32",
          "name": "s",
          "type": "bytes32"
        }
      ],
      "name": "permit",
      "outputs": [],
      "stateMutability": "nonpayable",
      "type": "function"
    },
    {
      "inputs": [],
      "name": "symbol",
      "outputs": [
        {
          "internalType": "string",
          "name": "",
          "type": "string"
        }
      ],
      "stateMutability": "view",
      "type": "function",
      "constant": true
    },
    {
      "inputs": [],
      "name": "totalSupply",
      "outputs": [
        {
          "internalType": "uint256",
          "name": "",
          "type": "uint256"
        }
      ],
      "stateMutability": "view",
      "type": "function",
      "constant": true
    },
    {
      "inputs": [
        {
          "internalType": "address",
          "name": "to",
          "type": "address"
        },
        {
          "internalType": "uint256",
          "name": "value",
          "type": "uint256"
        }
      ],
      "name": "transfer",
      "outputs": [
        {
          "internalType": "bool",
          "name": "",
          "type": "bool"
        }
      ],
      "stateMutability": "nonpayable",
      "type": "function"
    },
    {
      "inputs": [
        {
          "internalType": "address",
          "name": "from",
          "type": "address"
        },
        {
          "internalType": "address",
          "name": "to",
          "type": "address"
        },
        {
          "internalType": "uint256",
          "name": "value",
          "type": "uint256"
        }
      ],
      "name": "transferFrom",
      "outputs": [
        {
          "internalType": "bool",
          "name": "",
          "type": "bool"
        }
      ],
      "stateMutability": "nonpayable",
      "type": "function"
    },
    {
      "inputs": [
        {
          "internalType": "uint256",
          "name": "tokenCount",
          "type": "uint256"
        }
      ],
      "name": "buyTokens",
      "outputs": [
        {
          "internalType": "uint256",
          "name": "",
          "type": "uint256"
        },
        {
          "internalType": "uint256",
          "name": "",
          "type": "uint256"
        }
      ],
      "stateMutability": "payable",
      "type": "function",
      "payable": true
    },
    {
      "inputs": [
        {
          "internalType": "uint256",
          "name": "tokenCount",
          "type": "uint256"
        }
      ],
      "name": "sellTokens",
      "outputs": [
        {
          "internalType": "uint256",
          "name": "",
          "type": "uint256"
        },
        {
          "internalType": "uint256",
          "name": "",
          "type": "uint256"
        }
      ],
      "stateMutability": "nonpayable",
      "type": "function"
    },
    {
      "inputs": [
        {
          "internalType": "address",
          "name": "to",
          "type": "address"
        },
        {
          "internalType": "uint256",
          "name": "tokenCount",
          "type": "uint256"
        }
      ],
      "name": "transferTokens",
      "outputs": [
        {
          "internalType": "uint256",
          "name": "",
          "type": "uint256"
        }
      ],
      "stateMutability": "nonpayable",
      "type": "function"
    },
    {
      "inputs": [],
      "name": "balanceTokensCount",
      "outputs": [
        {
          "internalType": "uint256",
          "name": "",
          "type": "uint256"
        }
      ],
      "stateMutability": "view",
      "type": "function",
      "constant": true
    },
    {
      "inputs": [
        {
          "internalType": "address",
          "name": "userAdd",
          "type": "address"
        }
      ],
      "name": "walletBalance",
      "outputs": [
        {
          "internalType": "uint256",
          "name": "",
          "type": "uint256"
        }
      ],
      "stateMutability": "view",
      "type": "function",
      "constant": true
    },
    {
      "inputs": [],
      "name": "contractBal",
      "outputs": [
        {
          "internalType": "uint256",
          "name": "",
          "type": "uint256"
        }
      ],
      "stateMutability": "view",
      "type": "function",
      "constant": true
    }
  ],
  "bytecode": "0x61016060405234801562000011575f80fd5b506040518060400160405280600481526020017f5361676f00000000000000000000000000000000000000000000000000000000815250806040518060400160405280600181526020017f31000000000000000000000000000000000000000000000000000000000000008152506040518060400160405280600481526020017f5361676f000000000000000000000000000000000000000000000000000000008152506040518060400160405280600481526020017f7361676f000000000000000000000000000000000000000000000000000000008152508160039081620000fc919062000859565b5080600490816200010e919062000859565b505050620001276005836200022360201b90919060201c565b6101208181525050620001456006826200022360201b90919060201c565b6101408181525050818051906020012060e08181525050808051906020012061010081815250504660a08181525050620001846200027860201b60201c565b608081815250503073ffffffffffffffffffffffffffffffffffffffff1660c08173ffffffffffffffffffffffffffffffffffffffff1681525050505050620001dd3368056bc75e2d63100000620002d460201b60201c565b3360085f6101000a81548173ffffffffffffffffffffffffffffffffffffffff021916908373ffffffffffffffffffffffffffffffffffffffff16021790555062000c28565b5f602083511015620002485762000240836200035e60201b60201c565b905062000272565b826200025a83620003c860201b60201c565b5f0190816200026a919062000859565b5060ff5f1b90505b92915050565b5f7f8b73c3c69bb8fe3d512ecc4cf759cc79239f7b179b0ffacaa9a75d522b39400f60e051610100514630604051602001620002b9959493929190620009ab565b60405160208183030381529060405280519060200120905090565b5f73ffffffffffffffffffffffffffffffffffffffff168273ffffffffffffffffffffffffffffffffffffffff160362000347575f6040517fec442f050000000000000000000000000000000000000000000000000000000081526004016200033e919062000a06565b60405180910390fd5b6200035a5f8383620003d160201b60201c565b5050565b5f80829050601f81511115620003ad57826040517f305a27a9000000000000000000000000000000000000000000000000000000008152600401620003a4919062000aab565b60405180910390fd5b805181620003bb9062000afc565b5f1c175f1b915050919050565b5f819050919050565b5f73ffffffffffffffffffffffffffffffffffffffff168373ffffffffffffffffffffffffffffffffffffffff160362000425578060025f82825462000418919062000b98565b92505081905550620004f6565b5f805f8573ffffffffffffffffffffffffffffffffffffffff1673ffffffffffffffffffffffffffffffffffffffff1681526020019081526020015f2054905081811015620004b1578381836040517fe450d38c000000000000000000000000000000000000000000000000000000008152600401620004a89392919062000bd2565b60405180910390fd5b8181035f808673ffffffffffffffffffffffffffffffffffffffff1673ffffffffffffffffffffffffffffffffffffffff1681526020019081526020015f2081905550505b5f73ffffffffffffffffffffffffffffffffffffffff168273ffffffffffffffffffffffffffffffffffffffff16036200053f578060025f828254039250508190555062000589565b805f808473ffffffffffffffffffffffffffffffffffffffff1673ffffffffffffffffffffffffffffffffffffffff1681526020019081526020015f205f82825401925050819055505b8173ffffffffffffffffffffffffffffffffffffffff168373ffffffffffffffffffffffffffffffffffffffff167fddf252ad1be2c89b69c2b068fc378daa952ba7f163c4a11628f55a4df523b3ef83604051620005e8919062000c0d565b60405180910390a3505050565b5f81519050919050565b7f4e487b71000000000000000000000000000000000000000000000000000000005f52604160045260245ffd5b7f4e487b71000000000000000000000000000000000000000000000000000000005f52602260045260245ffd5b5f60028204905060018216806200067157607f821691505b6020821081036200068757620006866200062c565b5b50919050565b5f819050815f5260205f209050919050565b5f6020601f8301049050919050565b5f82821b905092915050565b5f60088302620006eb7fffffffffffffffffffffffffffffffffffffffffffffffffffffffffffffffff82620006ae565b620006f78683620006ae565b95508019841693508086168417925050509392505050565b5f819050919050565b5f819050919050565b5f620007416200073b62000735846200070f565b62000718565b6200070f565b9050919050565b5f819050919050565b6200075c8362000721565b620007746200076b8262000748565b848454620006ba565b825550505050565b5f90565b6200078a6200077c565b6200079781848462000751565b505050565b5b81811015620007be57620007b25f8262000780565b6001810190506200079d565b5050565b601f8211156200080d57620007d7816200068d565b620007e2846200069f565b81016020851015620007f2578190505b6200080a62000801856200069f565b8301826200079c565b50505b505050565b5f82821c905092915050565b5f6200082f5f198460080262000812565b1980831691505092915050565b5f6200084983836200081e565b9150826002028217905092915050565b6200086482620005f5565b67ffffffffffffffff81111562000880576200087f620005ff565b5b6200088c825462000659565b62000899828285620007c2565b5f60209050601f831160018114620008cf575f8415620008ba578287015190505b620008c685826200083c565b86555062000935565b601f198416620008df866200068d565b5f5b828110156200090857848901518255600182019150602085019450602081019050620008e1565b8683101562000928578489015162000924601f8916826200081e565b8355505b6001600288020188555050505b505050505050565b5f819050919050565b62000951816200093d565b82525050565b62000962816200070f565b82525050565b5f73ffffffffffffffffffffffffffffffffffffffff82169050919050565b5f620009938262000968565b9050919050565b620009a58162000987565b82525050565b5f60a082019050620009c05f83018862000946565b620009cf602083018762000946565b620009de604083018662000946565b620009ed606083018562000957565b620009fc60808301846200099a565b9695505050505050565b5f60208201905062000a1b5f8301846200099a565b92915050565b5f82825260208201905092915050565b5f5b8381101562000a5057808201518184015260208101905062000a33565b5f8484015250505050565b5f601f19601f8301169050919050565b5f62000a7782620005f5565b62000a83818562000a21565b935062000a9581856020860162000a31565b62000aa08162000a5b565b840191505092915050565b5f6020820190508181035f83015262000ac5818462000a6b565b905092915050565b5f81519050919050565b5f819050602082019050919050565b5f62000af382516200093d565b80915050919050565b5f62000b088262000acd565b8262000b148462000ad7565b905062000b218162000ae6565b9250602082101562000b645762000b5f7fffffffffffffffffffffffffffffffffffffffffffffffffffffffffffffffff83602003600802620006ae565b831692505b5050919050565b7f4e487b71000000000000000000000000000000000000000000000000000000005f52601160045260245ffd5b5f62000ba4826200070f565b915062000bb1836200070f565b925082820190508082111562000bcc5762000bcb62000b6b565b5b92915050565b5f60608201905062000be75f8301866200099a565b62000bf6602083018562000957565b62000c05604083018462000957565b949350505050565b5f60208201905062000c225f83018462000957565b92915050565b60805160a05160c05160e0516101005161012051610140516122b562000c7a5f395f610f6901525f610f2e01525f61146201525f61144101525f610e2c01525f610e8201525f610eab01526122b55ff3fe608060405260043610610113575f3560e01c80637ecebe001161009f578063c9cd30a011610063578063c9cd30a0146103ef578063cf9cd8f814610419578063cfc4e4c714610455578063d505accf1461047f578063dd62ed3e146104a757610113565b80637ecebe00146102e157806384b0196e1461031d57806395d89b411461034d578063a9059cbb14610377578063bec3fa17146103b357610113565b8063313ce567116100e6578063313ce567146101e35780633610724e1461020d5780633644e5151461023e5780636c11bcd31461026857806370a08231146102a557610113565b806306fdde0314610117578063095ea7b31461014157806318160ddd1461017d57806323b872dd146101a7575b5f80fd5b348015610122575f80fd5b5061012b6104e3565b6040516101389190611932565b60405180910390f35b34801561014c575f80fd5b50610167600480360381019061016291906119e3565b610573565b6040516101749190611a3b565b60405180910390f35b348015610188575f80fd5b50610191610595565b60405161019e9190611a63565b60405180910390f35b3480156101b2575f80fd5b506101cd60048036038101906101c89190611a7c565b61059e565b6040516101da9190611a3b565b60405180910390f35b3480156101ee575f80fd5b506101f76105cc565b6040516102049190611ae7565b60405180910390f35b61022760048036038101906102229190611b00565b6105d4565b604051610235929190611b2b565b60405180910390f35b348015610249575f80fd5b506102526106e9565b60405161025f9190611b6a565b60405180910390f35b348015610273575f80fd5b5061028e60048036038101906102899190611b00565b6106f7565b60405161029c929190611b2b565b60405180910390f35b3480156102b0575f80fd5b506102cb60048036038101906102c69190611b83565b610809565b6040516102d89190611a63565b60405180910390f35b3480156102ec575f80fd5b5061030760048036038101906103029190611b83565b61084e565b6040516103149190611a63565b60405180910390f35b348015610328575f80fd5b5061033161085f565b6040516103449796959493929190611cae565b60405180910390f35b348015610358575f80fd5b50610361610904565b60405161036e9190611932565b60405180910390f35b348015610382575f80fd5b5061039d600480360381019061039891906119e3565b610994565b6040516103aa9190611a3b565b60405180910390f35b3480156103be575f80fd5b506103d960048036038101906103d491906119e3565b6109b6565b6040516103e69190611a63565b60405180910390f35b3480156103fa575f80fd5b50610403610a46565b6040516104109190611a63565b60405180910390f35b348015610424575f80fd5b5061043f600480360381019061043a9190611b83565b610a60565b60405161044c9190611a63565b60405180910390f35b348015610460575f80fd5b50610469610a84565b6040516104769190611a63565b60405180910390f35b34801561048a575f80fd5b506104a560048036038101906104a09190611d84565b610ac7565b005b3480156104b2575f80fd5b506104cd60048036038101906104c89190611e21565b610c0c565b6040516104da9190611a63565b60405180910390f35b6060600380546104f290611e8c565b80601f016020809104026020016040519081016040528092919081815260200182805461051e90611e8c565b80156105695780601f1061054057610100808354040283529160200191610569565b820191905f5260205f20905b81548152906001019060200180831161054c57829003601f168201915b5050505050905090565b5f8061057d610c8e565b905061058a818585610c95565b600191505092915050565b5f600254905090565b5f806105a8610c8e565b90506105b5858285610ca7565b6105c0858585610d39565b60019150509392505050565b5f6012905090565b5f8082670de0b6b3a7640000816105eb9190611ee9565b34101561062d576040517f08c379a000000000000000000000000000000000000000000000000000000000815260040161062490611f74565b60405180910390fd5b3373ffffffffffffffffffffffffffffffffffffffff166108fc670de0b6b3a76400008661065b9190611ee9565b346106669190611f92565b90811502906040515f60405180830381858888f1935050505015801561068e573d5f803e3d5ffd5b506106ce60085f9054906101000a900473ffffffffffffffffffffffffffffffffffffffff1633670de0b6b3a7640000876106c99190611ee9565b610d39565b6106d6610a84565b6106df33610a60565b9250925050915091565b5f6106f2610e29565b905090565b5f808261070333610809565b670de0b6b3a7640000826107179190611ee9565b1115610758576040517f08c379a000000000000000000000000000000000000000000000000000000000815260040161074f9061200f565b60405180910390fd5b6107973360085f9054906101000a900473ffffffffffffffffffffffffffffffffffffffff16670de0b6b3a7640000876107929190611ee9565b610d39565b3373ffffffffffffffffffffffffffffffffffffffff166108fc670de0b6b3a7640000866107c59190611ee9565b90811502906040515f60405180830381858888f193505050501580156107ed573d5f803e3d5ffd5b506107f6610a84565b6107ff33610a60565b9250925050915091565b5f805f8373ffffffffffffffffffffffffffffffffffffffff1673ffffffffffffffffffffffffffffffffffffffff1681526020019081526020015f20549050919050565b5f61085882610edf565b9050919050565b5f6060805f805f6060610870610f25565b610878610f60565b46305f801b5f67ffffffffffffffff8111156108975761089661202d565b5b6040519080825280602002602001820160405280156108c55781602001602082028036833780820191505090505b507f0f00000000000000000000000000000000000000000000000000000000000000959493929190965096509650965096509650965090919293949596565b60606004805461091390611e8c565b80601f016020809104026020016040519081016040528092919081815260200182805461093f90611e8c565b801561098a5780601f106109615761010080835404028352916020019161098a565b820191905f5260205f20905b81548152906001019060200180831161096d57829003601f168201915b5050505050905090565b5f8061099e610c8e565b90506109ab818585610d39565b600191505092915050565b5f816109c133610809565b670de0b6b3a7640000826109d59190611ee9565b1115610a16576040517f08c379a0000000000000000000000000000000000000000000000000000000008152600401610a0d9061200f565b60405180910390fd5b610a343385670de0b6b3a764000086610a2f9190611ee9565b610d39565b610a3d33610a60565b91505092915050565b5f670de0b6b3a764000047610a5b9190612087565b905090565b5f670de0b6b3a7640000610a7383610809565b610a7d9190612087565b9050919050565b5f670de0b6b3a7640000610ab860085f9054906101000a900473ffffffffffffffffffffffffffffffffffffffff16610809565b610ac29190612087565b905090565b83421115610b0c57836040517f62791302000000000000000000000000000000000000000000000000000000008152600401610b039190611a63565b60405180910390fd5b5f7f6e71edae12b1b97f4d1f60370fef10105fa2faae0126114a169c64845d6126c9888888610b3a8c610f9b565b89604051602001610b50969594939291906120b7565b6040516020818303038152906040528051906020012090505f610b7282610fee565b90505f610b8182878787611007565b90508973ffffffffffffffffffffffffffffffffffffffff168173ffffffffffffffffffffffffffffffffffffffff1614610bf557808a6040517f4b800e46000000000000000000000000000000000000000000000000000000008152600401610bec929190612116565b60405180910390fd5b610c008a8a8a610c95565b50505050505050505050565b5f60015f8473ffffffffffffffffffffffffffffffffffffffff1673ffffffffffffffffffffffffffffffffffffffff1681526020019081526020015f205f8373ffffffffffffffffffffffffffffffffffffffff1673ffffffffffffffffffffffffffffffffffffffff1681526020019081526020015f2054905092915050565b5f33905090565b610ca28383836001611035565b505050565b5f610cb28484610c0c565b90507fffffffffffffffffffffffffffffffffffffffffffffffffffffffffffffffff8114610d335781811015610d24578281836040517ffb8f41b2000000000000000000000000000000000000000000000000000000008152600401610d1b9392919061213d565b60405180910390fd5b610d3284848484035f611035565b5b50505050565b5f73ffffffffffffffffffffffffffffffffffffffff168373ffffffffffffffffffffffffffffffffffffffff1603610da9575f6040517f96c6fd1e000000000000000000000000000000000000000000000000000000008152600401610da09190612172565b60405180910390fd5b5f73ffffffffffffffffffffffffffffffffffffffff168273ffffffffffffffffffffffffffffffffffffffff1603610e19575f6040517fec442f05000000000000000000000000000000000000000000000000000000008152600401610e109190612172565b60405180910390fd5b610e24838383611204565b505050565b5f7f000000000000000000000000000000000000000000000000000000000000000073ffffffffffffffffffffffffffffffffffffffff163073ffffffffffffffffffffffffffffffffffffffff16148015610ea457507f000000000000000000000000000000000000000000000000000000000000000046145b15610ed1577f00000000000000000000000000000000000000000000000000000000000000009050610edc565b610ed961141d565b90505b90565b5f60075f8373ffffffffffffffffffffffffffffffffffffffff1673ffffffffffffffffffffffffffffffffffffffff1681526020019081526020015f20549050919050565b6060610f5b60057f00000000000000000000000000000000000000000000000000000000000000006114b290919063ffffffff16565b905090565b6060610f9660067f00000000000000000000000000000000000000000000000000000000000000006114b290919063ffffffff16565b905090565b5f60075f8373ffffffffffffffffffffffffffffffffffffffff1673ffffffffffffffffffffffffffffffffffffffff1681526020019081526020015f205f815480929190600101919050559050919050565b5f611000610ffa610e29565b8361155f565b9050919050565b5f805f806110178888888861159f565b9250925092506110278282611686565b829350505050949350505050565b5f73ffffffffffffffffffffffffffffffffffffffff168473ffffffffffffffffffffffffffffffffffffffff16036110a5575f6040517fe602df0500000000000000000000000000000000000000000000000000000000815260040161109c9190612172565b60405180910390fd5b5f73ffffffffffffffffffffffffffffffffffffffff168373ffffffffffffffffffffffffffffffffffffffff1603611115575f6040517f94280d6200000000000000000000000000000000000000000000000000000000815260040161110c9190612172565b60405180910390fd5b8160015f8673ffffffffffffffffffffffffffffffffffffffff1673ffffffffffffffffffffffffffffffffffffffff1681526020019081526020015f205f8573ffffffffffffffffffffffffffffffffffffffff1673ffffffffffffffffffffffffffffffffffffffff1681526020019081526020015f208190555080156111fe578273ffffffffffffffffffffffffffffffffffffffff168473ffffffffffffffffffffffffffffffffffffffff167f8c5be1e5ebec7d5bd14f71427d1e84f3dd0314c0f7b2291e5b200ac8c7c3b925846040516111f59190611a63565b60405180910390a35b50505050565b5f73ffffffffffffffffffffffffffffffffffffffff168373ffffffffffffffffffffffffffffffffffffffff1603611254578060025f828254611248919061218b565b92505081905550611322565b5f805f8573ffffffffffffffffffffffffffffffffffffffff1673ffffffffffffffffffffffffffffffffffffffff1681526020019081526020015f20549050818110156112dd578381836040517fe450d38c0000000000000000000000000000000000000000000000000000000081526004016112d49392919061213d565b60405180910390fd5b8181035f808673ffffffffffffffffffffffffffffffffffffffff1673ffffffffffffffffffffffffffffffffffffffff1681526020019081526020015f2081905550505b5f73ffffffffffffffffffffffffffffffffffffffff168273ffffffffffffffffffffffffffffffffffffffff1603611369578060025f82825403925050819055506113b3565b805f808473ffffffffffffffffffffffffffffffffffffffff1673ffffffffffffffffffffffffffffffffffffffff1681526020019081526020015f205f82825401925050819055505b8173ffffffffffffffffffffffffffffffffffffffff168373ffffffffffffffffffffffffffffffffffffffff167fddf252ad1be2c89b69c2b068fc378daa952ba7f163c4a11628f55a4df523b3ef836040516114109190611a63565b60405180910390a3505050565b5f7f8b73c3c69bb8fe3d512ecc4cf759cc79239f7b179b0ffacaa9a75d522b39400f7f00000000000000000000000000000000000000000000000000000000000000007f000000000000000000000000000000000000000000000000000000000000000046306040516020016114979594939291906121be565b60405160208183030381529060405280519060200120905090565b606060ff5f1b83146114ce576114c7836117e8565b9050611559565b8180546114da90611e8c565b80601f016020809104026020016040519081016040528092919081815260200182805461150690611e8c565b80156115515780601f1061152857610100808354040283529160200191611551565b820191905f5260205f20905b81548152906001019060200180831161153457829003601f168201915b505050505090505b92915050565b5f6040517f190100000000000000000000000000000000000000000000000000000000000081528360028201528260228201526042812091505092915050565b5f805f7f7fffffffffffffffffffffffffffffff5d576e7357a4501ddfe92f46681b20a0845f1c11156115db575f60038592509250925061167c565b5f6001888888886040515f81526020016040526040516115fe949392919061220f565b6020604051602081039080840390855afa15801561161e573d5f803e3d5ffd5b5050506020604051035190505f73ffffffffffffffffffffffffffffffffffffffff168173ffffffffffffffffffffffffffffffffffffffff160361166f575f60015f801b9350935093505061167c565b805f805f1b935093509350505b9450945094915050565b5f600381111561169957611698612252565b5b8260038111156116ac576116ab612252565b5b03156117e457600160038111156116c6576116c5612252565b5b8260038111156116d9576116d8612252565b5b03611710576040517ff645eedf00000000000000000000000000000000000000000000000000000000815260040160405180910390fd5b6002600381111561172457611723612252565b5b82600381111561173757611736612252565b5b0361177b57805f1c6040517ffce698f70000000000000000000000000000000000000000000000000000000081526004016117729190611a63565b60405180910390fd5b60038081111561178e5761178d612252565b5b8260038111156117a1576117a0612252565b5b036117e357806040517fd78bce0c0000000000000000000000000000000000000000000000000000000081526004016117da9190611b6a565b60405180910390fd5b5b5050565b60605f6117f48361185a565b90505f602067ffffffffffffffff8111156118125761181161202d565b5b6040519080825280601f01601f1916602001820160405280156118445781602001600182028036833780820191505090505b5090508181528360208201528092505050919050565b5f8060ff835f1c169050601f81111561189f576040517fb3512b0c00000000000000000000000000000000000000000000000000000000815260040160405180910390fd5b80915050919050565b5f81519050919050565b5f82825260208201905092915050565b5f5b838110156118df5780820151818401526020810190506118c4565b5f8484015250505050565b5f601f19601f8301169050919050565b5f611904826118a8565b61190e81856118b2565b935061191e8185602086016118c2565b611927816118ea565b840191505092915050565b5f6020820190508181035f83015261194a81846118fa565b905092915050565b5f80fd5b5f73ffffffffffffffffffffffffffffffffffffffff82169050919050565b5f61197f82611956565b9050919050565b61198f81611975565b8114611999575f80fd5b50565b5f813590506119aa81611986565b92915050565b5f819050919050565b6119c2816119b0565b81146119cc575f80fd5b50565b5f813590506119dd816119b9565b92915050565b5f80604083850312156119f9576119f8611952565b5b5f611a068582860161199c565b9250506020611a17858286016119cf565b9150509250929050565b5f8115159050919050565b611a3581611a21565b82525050565b5f602082019050611a4e5f830184611a2c565b92915050565b611a5d816119b0565b82525050565b5f602082019050611a765f830184611a54565b92915050565b5f805f60608486031215611a9357611a92611952565b5b5f611aa08682870161199c565b9350506020611ab18682870161199c565b9250506040611ac2868287016119cf565b9150509250925092565b5f60ff82169050919050565b611ae181611acc565b82525050565b5f602082019050611afa5f830184611ad8565b92915050565b5f60208284031215611b1557611b14611952565b5b5f611b22848285016119cf565b91505092915050565b5f604082019050611b3e5f830185611a54565b611b4b6020830184611a54565b9392505050565b5f819050919050565b611b6481611b52565b82525050565b5f602082019050611b7d5f830184611b5b565b92915050565b5f60208284031215611b9857611b97611952565b5b5f611ba58482850161199c565b91505092915050565b5f7fff0000000000000000000000000000000000000000000000000000000000000082169050919050565b611be281611bae565b82525050565b611bf181611975565b82525050565b5f81519050919050565b5f82825260208201905092915050565b5f819050602082019050919050565b611c29816119b0565b82525050565b5f611c3a8383611c20565b60208301905092915050565b5f602082019050919050565b5f611c5c82611bf7565b611c668185611c01565b9350611c7183611c11565b805f5b83811015611ca1578151611c888882611c2f565b9750611c9383611c46565b925050600181019050611c74565b5085935050505092915050565b5f60e082019050611cc15f83018a611bd9565b8181036020830152611cd381896118fa565b90508181036040830152611ce781886118fa565b9050611cf66060830187611a54565b611d036080830186611be8565b611d1060a0830185611b5b565b81810360c0830152611d228184611c52565b905098975050505050505050565b611d3981611acc565b8114611d43575f80fd5b50565b5f81359050611d5481611d30565b92915050565b611d6381611b52565b8114611d6d575f80fd5b50565b5f81359050611d7e81611d5a565b92915050565b5f805f805f805f60e0888a031215611d9f57611d9e611952565b5b5f611dac8a828b0161199c565b9750506020611dbd8a828b0161199c565b9650506040611dce8a828b016119cf565b9550506060611ddf8a828b016119cf565b9450506080611df08a828b01611d46565b93505060a0611e018a828b01611d70565b92505060c0611e128a828b01611d70565b91505092959891949750929550565b5f8060408385031215611e3757611e36611952565b5b5f611e448582860161199c565b9250506020611e558582860161199c565b9150509250929050565b7f4e487b71000000000000000000000000000000000000000000000000000000005f52602260045260245ffd5b5f6002820490506001821680611ea357607f821691505b602082108103611eb657611eb5611e5f565b5b50919050565b7f4e487b71000000000000000000000000000000000000000000000000000000005f52601160045260245ffd5b5f611ef3826119b0565b9150611efe836119b0565b9250828202611f0c816119b0565b91508282048414831517611f2357611f22611ebc565b5b5092915050565b7f4e6f7420656e6f75676820657468657220746f206275790000000000000000005f82015250565b5f611f5e6017836118b2565b9150611f6982611f2a565b602082019050919050565b5f6020820190508181035f830152611f8b81611f52565b9050919050565b5f611f9c826119b0565b9150611fa7836119b0565b9250828203905081811115611fbf57611fbe611ebc565b5b92915050565b7f4e6f7420656e6f75676820746f6b656e730000000000000000000000000000005f82015250565b5f611ff96011836118b2565b915061200482611fc5565b602082019050919050565b5f6020820190508181035f83015261202681611fed565b9050919050565b7f4e487b71000000000000000000000000000000000000000000000000000000005f52604160045260245ffd5b7f4e487b71000000000000000000000000000000000000000000000000000000005f52601260045260245ffd5b5f612091826119b0565b915061209c836119b0565b9250826120ac576120ab61205a565b5b828204905092915050565b5f60c0820190506120ca5f830189611b5b565b6120d76020830188611be8565b6120e46040830187611be8565b6120f16060830186611a54565b6120fe6080830185611a54565b61210b60a0830184611a54565b979650505050505050565b5f6040820190506121295f830185611be8565b6121366020830184611be8565b9392505050565b5f6060820190506121505f830186611be8565b61215d6020830185611a54565b61216a6040830184611a54565b949350505050565b5f6020820190506121855f830184611be8565b92915050565b5f612195826119b0565b91506121a0836119b0565b92508282019050808211156121b8576121b7611ebc565b5b92915050565b5f60a0820190506121d15f830188611b5b565b6121de6020830187611b5b565b6121eb6040830186611b5b565b6121f86060830185611a54565b6122056080830184611be8565b9695505050505050565b5f6080820190506122225f830187611b5b565b61222f6020830186611ad8565b61223c6040830185611b5b565b6122496060830184611b5b565b95945050505050565b7f4e487b71000000000000000000000000000000000000000000000000000000005f52602160045260245ffdfea2646970667358221220393504f3bedb9ac6259e3eccc86f2ac5cfd40258afb41cbeebd6da7a16768ffc64736f6c63430008140033",
  "immutableReferences": {
    "2019": [
      {
        "length": 32,
        "start": 3755
      }
    ],
    "2021": [
      {
        "length": 32,
        "start": 3714
      }
    ],
    "2023": [
      {
        "length": 32,
        "start": 3628
      }
    ],
    "2025": [
      {
        "length": 32,
        "start": 5185
      }
    ],
    "2027": [
      {
        "length": 32,
        "start": 5218
      }
    ],
    "2030": [
      {
        "length": 32,
        "start": 3886
      }
    ],
    "2033": [
      {
        "length": 32,
        "start": 3945
      }
    ]
  },
  "source": "// SPDX-License-Identifier: MIT\r\npragma solidity ^0.8.0;\r\n\r\nimport \"@openzeppelin/contracts/token/ERC20/ERC20.sol\";\r\nimport \"@openzeppelin/contracts/token/ERC20/extensions/ERC20Permit.sol\";\r\n\r\ncontract Token is ERC20, ERC20Permit {\r\n    address private owner;\r\n\r\n    constructor() ERC20(\"Sago\", \"sago\") ERC20Permit(\"Sago\") {\r\n        _mint(msg.sender, 100 * 1 ether);\r\n        owner = msg.sender;\r\n    }\r\n\r\n    modifier isEnoughEth(uint tokenCount){\r\n        require(msg.value >= tokenCount * 1 ether, \"Not enough ether to buy\");\r\n        _;\r\n    }\r\n\r\n    modifier isEnoughTokens(uint tokenCount) {\r\n        require(tokenCount * 1 ether <= balanceOf(msg.sender), \"Not enough tokens\");\r\n        _;\r\n    }\r\n\r\n    function buyTokens(uint tokenCount) payable public isEnoughEth(tokenCount) returns (uint, uint){\r\n        payable(msg.sender).transfer(msg.value - tokenCount * 1 ether);\r\n        _transfer(owner, msg.sender, tokenCount * 1 ether);\r\n        return (balanceTokensCount(), walletBalance(msg.sender));\r\n    }\r\n\r\n    function sellTokens(uint tokenCount) public isEnoughTokens(tokenCount) returns (uint, uint){\r\n        _transfer(msg.sender, owner, tokenCount * 1 ether);\r\n        payable(msg.sender).transfer(tokenCount * 1 ether);\r\n        return (balanceTokensCount(), walletBalance(msg.sender));\r\n    }\r\n\r\n    function transferTokens(address to, uint tokenCount) public isEnoughTokens(tokenCount) returns (uint) {\r\n        _transfer(msg.sender, to, tokenCount * 1 ether);\r\n        return walletBalance(msg.sender);\r\n    }\r\n\r\n    function balanceTokensCount() public view returns (uint) {\r\n        return balanceOf(owner) / 1 ether;\r\n    }\r\n\r\n    function walletBalance(address userAdd) public view returns (uint) {\r\n        return balanceOf(userAdd) / 1 ether;\r\n    }\r\n\r\n    function contractBal() view public returns (uint){\r\n        return address(this).balance / 1 ether;\r\n    }\r\n}\r\n",
  "sourcePath": "C:\\Blockchain\\sago\\truffle\\contracts\\Token.sol",
  "compiler": {
    "name": "solc",
    "version": "0.8.20+commit.a1b79de6.Emscripten.clang"
  },
  "schemaVersion": "3.4.16",
  "updatedAt": "2024-01-30T17:10:54.168Z",
  "networkType": "ethereum",
  "devdoc": {
    "errors": {
      "ECDSAInvalidSignature()": [
        {
          "details": "The signature derives the `address(0)`."
        }
      ],
      "ECDSAInvalidSignatureLength(uint256)": [
        {
          "details": "The signature has an invalid length."
        }
      ],
      "ECDSAInvalidSignatureS(bytes32)": [
        {
          "details": "The signature has an S value that is in the upper half order."
        }
      ],
      "ERC20InsufficientAllowance(address,uint256,uint256)": [
        {
          "details": "Indicates a failure with the `spender`s `allowance`. Used in transfers.",
          "params": {
            "allowance": "Amount of tokens a `spender` is allowed to operate with.",
            "needed": "Minimum amount required to perform a transfer.",
            "spender": "Address that may be allowed to operate on tokens without being their owner."
          }
        }
      ],
      "ERC20InsufficientBalance(address,uint256,uint256)": [
        {
          "details": "Indicates an error related to the current `balance` of a `sender`. Used in transfers.",
          "params": {
            "balance": "Current balance for the interacting account.",
            "needed": "Minimum amount required to perform a transfer.",
            "sender": "Address whose tokens are being transferred."
          }
        }
      ],
      "ERC20InvalidApprover(address)": [
        {
          "details": "Indicates a failure with the `approver` of a token to be approved. Used in approvals.",
          "params": {
            "approver": "Address initiating an approval operation."
          }
        }
      ],
      "ERC20InvalidReceiver(address)": [
        {
          "details": "Indicates a failure with the token `receiver`. Used in transfers.",
          "params": {
            "receiver": "Address to which tokens are being transferred."
          }
        }
      ],
      "ERC20InvalidSender(address)": [
        {
          "details": "Indicates a failure with the token `sender`. Used in transfers.",
          "params": {
            "sender": "Address whose tokens are being transferred."
          }
        }
      ],
      "ERC20InvalidSpender(address)": [
        {
          "details": "Indicates a failure with the `spender` to be approved. Used in approvals.",
          "params": {
            "spender": "Address that may be allowed to operate on tokens without being their owner."
          }
        }
      ],
      "ERC2612ExpiredSignature(uint256)": [
        {
          "details": "Permit deadline has expired."
        }
      ],
      "ERC2612InvalidSigner(address,address)": [
        {
          "details": "Mismatched signature."
        }
      ],
      "InvalidAccountNonce(address,uint256)": [
        {
          "details": "The nonce used for an `account` is not the expected current nonce."
        }
      ]
    },
    "events": {
      "Approval(address,address,uint256)": {
        "details": "Emitted when the allowance of a `spender` for an `owner` is set by a call to {approve}. `value` is the new allowance."
      },
      "EIP712DomainChanged()": {
        "details": "MAY be emitted to signal that the domain could have changed."
      },
      "Transfer(address,address,uint256)": {
        "details": "Emitted when `value` tokens are moved from one account (`from`) to another (`to`). Note that `value` may be zero."
      }
    },
    "kind": "dev",
    "methods": {
      "DOMAIN_SEPARATOR()": {
        "details": "Returns the domain separator used in the encoding of the signature for {permit}, as defined by {EIP712}."
      },
      "allowance(address,address)": {
        "details": "See {IERC20-allowance}."
      },
      "approve(address,uint256)": {
        "details": "See {IERC20-approve}. NOTE: If `value` is the maximum `uint256`, the allowance is not updated on `transferFrom`. This is semantically equivalent to an infinite approval. Requirements: - `spender` cannot be the zero address."
      },
      "balanceOf(address)": {
        "details": "See {IERC20-balanceOf}."
      },
      "decimals()": {
        "details": "Returns the number of decimals used to get its user representation. For example, if `decimals` equals `2`, a balance of `505` tokens should be displayed to a user as `5.05` (`505 / 10 ** 2`). Tokens usually opt for a value of 18, imitating the relationship between Ether and Wei. This is the default value returned by this function, unless it's overridden. NOTE: This information is only used for _display_ purposes: it in no way affects any of the arithmetic of the contract, including {IERC20-balanceOf} and {IERC20-transfer}."
      },
      "eip712Domain()": {
        "details": "See {IERC-5267}."
      },
      "name()": {
        "details": "Returns the name of the token."
      },
      "nonces(address)": {
        "details": "Returns the current nonce for `owner`. This value must be included whenever a signature is generated for {permit}. Every successful call to {permit} increases ``owner``'s nonce by one. This prevents a signature from being used multiple times."
      },
      "permit(address,address,uint256,uint256,uint8,bytes32,bytes32)": {
        "details": "Sets `value` as the allowance of `spender` over ``owner``'s tokens, given ``owner``'s signed approval. IMPORTANT: The same issues {IERC20-approve} has related to transaction ordering also apply here. Emits an {Approval} event. Requirements: - `spender` cannot be the zero address. - `deadline` must be a timestamp in the future. - `v`, `r` and `s` must be a valid `secp256k1` signature from `owner` over the EIP712-formatted function arguments. - the signature must use ``owner``'s current nonce (see {nonces}). For more information on the signature format, see the https://eips.ethereum.org/EIPS/eip-2612#specification[relevant EIP section]. CAUTION: See Security Considerations above."
      },
      "symbol()": {
        "details": "Returns the symbol of the token, usually a shorter version of the name."
      },
      "totalSupply()": {
        "details": "See {IERC20-totalSupply}."
      },
      "transfer(address,uint256)": {
        "details": "See {IERC20-transfer}. Requirements: - `to` cannot be the zero address. - the caller must have a balance of at least `value`."
      },
      "transferFrom(address,address,uint256)": {
        "details": "See {IERC20-transferFrom}. Emits an {Approval} event indicating the updated allowance. This is not required by the EIP. See the note at the beginning of {ERC20}. NOTE: Does not update the allowance if the current allowance is the maximum `uint256`. Requirements: - `from` and `to` cannot be the zero address. - `from` must have a balance of at least `value`. - the caller must have allowance for ``from``'s tokens of at least `value`."
      }
    },
    "version": 1
  },
  "userdoc": {
    "kind": "user",
    "methods": {},
    "version": 1
  }
}